{
  "_format": "hh-sol-artifact-1",
  "contractName": "faucet",
  "sourceName": "contracts/faucet.sol",
  "abi": [
    {
      "anonymous": false,
      "inputs": [
        {
          "indexed": true,
          "internalType": "address",
          "name": "from",
          "type": "address"
        },
        {
          "indexed": false,
          "internalType": "uint256",
          "name": "amount",
          "type": "uint256"
        }
      ],
      "name": "Deposit",
      "type": "event"
    },
    {
      "anonymous": false,
      "inputs": [
        {
          "indexed": true,
          "internalType": "address",
          "name": "to",
          "type": "address"
        },
        {
          "indexed": false,
          "internalType": "uint256",
          "name": "amount",
          "type": "uint256"
        }
      ],
      "name": "Withdrawal",
      "type": "event"
    },
    {
      "inputs": [],
      "name": "deposit",
      "outputs": [],
      "stateMutability": "payable",
      "type": "function"
    },
    {
      "inputs": [],
      "name": "destroy",
      "outputs": [],
      "stateMutability": "nonpayable",
      "type": "function"
    },
    {
      "inputs": [
        {
          "internalType": "uint256",
          "name": "withdraw_amount",
          "type": "uint256"
        }
      ],
      "name": "withdraw",
      "outputs": [],
      "stateMutability": "payable",
      "type": "function"
    }
  ],
  "bytecode": "0x608060405234801561001057600080fd5b50336000806101000a81548173ffffffffffffffffffffffffffffffffffffffff021916908373ffffffffffffffffffffffffffffffffffffffff160217905550610383806100606000396000f3fe6080604052600436106100345760003560e01c80632e1a7d4d1461003957806383197ef014610055578063d0e30db01461006c575b600080fd5b610053600480360381019061004e919061025c565b610076565b005b34801561006157600080fd5b5061006a610166565b005b6100746101f7565b005b670de0b6b3a764000081111561008b57600080fd5b804710156100ce576040517f08c379a00000000000000000000000000000000000000000000000000000000081526004016100c5906102b7565b60405180910390fd5b3373ffffffffffffffffffffffffffffffffffffffff166108fc829081150290604051600060405180830381858888f19350505050158015610114573d6000803e3d6000fd5b503373ffffffffffffffffffffffffffffffffffffffff167f7fcf532c15f0a6db0bd6d0e038bea71d30d808c7d98cb3bf7268a95bf5081b653460405161015b91906102d7565b60405180910390a250565b60008054906101000a900473ffffffffffffffffffffffffffffffffffffffff1673ffffffffffffffffffffffffffffffffffffffff163373ffffffffffffffffffffffffffffffffffffffff16146101be57600080fd5b60008054906101000a900473ffffffffffffffffffffffffffffffffffffffff1673ffffffffffffffffffffffffffffffffffffffff16ff5b3373ffffffffffffffffffffffffffffffffffffffff167fe1fffcc4923d04b559f4d29a8bfc6cda04eb5b0d3c460751c2402c5c5cc9109c3460405161023d91906102d7565b60405180910390a2565b60008135905061025681610336565b92915050565b60006020828403121561026e57600080fd5b600061027c84828501610247565b91505092915050565b6000610292601e836102f2565b915061029d8261030d565b602082019050919050565b6102b181610303565b82525050565b600060208201905081810360008301526102d081610285565b9050919050565b60006020820190506102ec60008301846102a8565b92915050565b600082825260208201905092915050565b6000819050919050565b7f496e73756666696369656e742062616c616e636520696e206661756365740000600082015250565b61033f81610303565b811461034a57600080fd5b5056fea2646970667358221220ee306cbec58407caf1af8afd819dceb3ce481ba85f92752234f87c012c43e99964736f6c63430008040033",
  "linkReferences": {},
  "deployedLinkReferences": {}
}